:100000000C94340018950000189500001895000015
:10001000189500001895000018950000189500002C
:10002000189500001895000018950000189500001C
:10003000189500000C9475041895000018950000A0
:1000400018950000189500001895000018950000FC
:1000500018950000189500001895000018950000EC
:1000600018950000189500008FEF8DBFC0ECE8E3F5
:100070004E2E88E08EBFD8E0F8E05F2EA89584B7BA
:10008000082E877F84BF88E1992780936000909332
:100090006000EEEFF7E0A0E0B1E088278D933197A4
:1000A000E9F783E38093C40080E08093C50088E192
:1000B0008093C1000E94DA0866248CE00E9428091F
:1000C000ECEDF0E088E40E94280958E0C895802D06
:1000D0000E94220931965A95C9F704C0201F111BAE
:1000E0001B1F20200E94BF08789480E0809380002E
:1000F00085E0809381003B98339A52984A9A3C98C5
:10010000349A53984B9A3D98359A54984C9A27981C
:100110001F9A3A9A429A249A2C98399A4198A0E0C8
:10012000B1E0E4ECF4E10E946909A5E6B1E0E6ED96
:10013000F4E10E94690970916E017F7E70936E01F7
:10014000E0E0F0E0AFE2B1E094E00E94590A40E262
:1001500057E466E170E0AFE2B1E00D911D912D91A1
:100160003C91041715072607370718F011F00C9477
:10017000BB000C94C100AFE2B1E0E0ECF4E10E94FE
:10018000770948E85CE066E170E0AFE2B1E00D912C
:100190001D912D913C91041715072607370710F084
:1001A0000C94D800AFE2B1E0E0ECF4E10E947709F2
:1001B000E4E0F0E0A3E3B1E00E94560A00913301CD
:1001C000033018F011F00C94E7000C94EA0081E081
:1001D00080933301E5E0F0E0A4E3B1E00E94560A29
:1001E00000913401063218F011F00C94F9000C94CF
:1001F000FC0080E080933401E6E0F0E0A5E3B1E0AC
:100200000E94560A00913501033018F011F00C9449
:100210000B010C940E0182E080933501E9E0F0E0DF
:10022000A9EAB1E00E94560A0091A901083018F02D
:1002300011F00C941D010C94200182E08093A9011F
:100240000E940906E7E0F0E0ADE6B1E00E94560A40
:1002500000916D01073018F011F00C9431010C94ED
:100260003B0180E080936D01E7E0F0E0ADE6B1E0B6
:100270007BE70E94450A0E948D06E8E0F0E0A4E9D1
:10028000B1E00E94560A00919401083018F011F074
:100290000C944C010C944F0181E0809394010E94D6
:1002A000B7078FE711E00E94CE08EAEDF4E10E9463
:1002B000B8088FEB11E00E94CE08ECEEF4E10E944A
:1002C000B808E3E0F0E00E94D1080E94BF088FE781
:1002D00011E00E94CE08EEEFF4E10E94B8088FEB27
:1002E00011E00E94CE08E0E1F5E10E94B808E3E0E9
:1002F000F0E00E94D1080E94BF0833990C94860157
:100300000E94E30784E690E00E94550934990C941A
:100310008F010E940F0784E690E00E9455090E9419
:10032000C2028CE291E00E9455094C9B0C942D0274
:100330003B98AEE6B1E09C9193FF04C0339B10C0A4
:10034000977F9C9333990CC089E19F9390E00E9422
:1003500055099F91339904C098609C930E94E904C9
:100360005298AEE6B1E09C9192FF04C04A9B10C047
:100370009B7F9C934A990CC089E19F9390E00E94D7
:1003800055099F914A9904C094609C930E94480526
:100390003C98AEE6B1E09C9191FF04C0349B10C044
:1003A0009D7F9C9334990CC089E19F9390E00E94BB
:1003B00055099F91349904C092609C930E94BB059B
:1003C0005398AEE6B1E09C9190FF04C04B9B10C0E7
:1003D0009E7F9C934B990CC089E19F9390E00E9473
:1003E00055099F914B9904C091609C930E94D80538
:1003F0003D98ACEAB1E09C9197FF04C0359B10C0DA
:100400009F779C9335990CC089E19F9390E00E945F
:1004100055099F91359904C090689C930E94A70547
:100420001F9B0C942B025498ACEAB1E09C9196FF70
:1004300004C04C9B10C09F7B9C934C990CC089E1DD
:100440009F9390E00E9455099F914C9904C090643D
:100450009C930E945B060C94C0024C990C94C002C1
:100460003B98AEE6B1E09C9193FF04C0339B10C073
:10047000977F9C9333990CC089E19F9390E00E94F1
:1004800055099F91339904C098609C930E94E90498
:100490005298AEE6B1E09C9192FF04C04A9B10C016
:1004A0009B7F9C934A990CC089E19F9390E00E94A6
:1004B00055099F914A9904C094609C930E944805F5
:1004C0003C98AEE6B1E09C9191FF04C0349B10C013
:1004D0009D7F9C9334990CC089E19F9390E00E948A
:1004E00055099F91349904C092609C930E94F50530
:1004F0005398AEE6B1E09C9190FF04C04B9B10C0B6
:100500009E7F9C934B990CC089E19F9390E00E9441
:1005100055099F914B9904C091609C930E9472046D
:100520003D98ACEAB1E09C9197FF04C0359B10C0A8
:100530009F779C9335990CC089E19F9390E00E942E
:1005400055099F91359904C090689C930E94590465
:100550002798ACEAB1E09C9195FF04C01F9910C0A8
:100560009F7D9C931F9B0CC089E19F9390E00E940C
:1005700055099F911F9B04C090629C930E945B064B
:100580000C949501ECEEF0E1A4E3B1E08C91992795
:10059000A0E6B1E00E947F09A1E6B1E0E0E6F1E06B
:1005A0000E94F409E1E6F1E0A0E2B8E00E943A0A14
:1005B000E0E2F8E0A1E6B1E01127222703E03327CB
:1005C0000E948E098FE711E00E94CE08E2E2F5E179
:1005D0000E94B808AAE4B1E00E94B2088FEB11E0D3
:1005E0000E94CE08E8E2F5E10E94B808A7E5B1E074
:1005F0000E94B2088FEB1EE00E94CE08A5E6B1E093
:100600000E94B2088FE71EE00E94CE08A1E6B1E08A
:100610000E94B2088FE71DE00E94CE08A4E4B1E07A
:100620000E94B2088FEB1DE00E94CE08A2E4B1E068
:100630000E94B208089570916F00716070936F000E
:1006400080E090E09093850080938400429A7091BE
:100650006F00716070936F0000913301013011F0F1
:100660000C944C03AFE2B1E00D911D912D913C91A2
:10067000A3E5B1E00D931D932D933C93AFE2B1E060
:100680000D911D912D913C91A6E4B1E00D931D9328
:100690002D933C930C949C0300913301023011F094
:1006A0000C947203AFE2B1E00D911D912D913C913C
:1006B00040E757E160E070E00E94D109A3E5B1E0B6
:1006C0000D931D932D933D93AFE2B1E00D911D91DC
:1006D0002D913C91A6E4B1E00D931D932D933C9395
:1006E0000C949C0300913301033011F00C949C0393
:1006F000AFE2B1E00D911D912D913C9140E757E1A2
:1007000060E070E00E94D109A3E5B1E00D931D9374
:100710002D933D93AFE2B1E00D911D912D913C9150
:1007200040E757E160E070E00E94D109A6E4B1E043
:100730000D931D932D933D93A7E5B1E0E3E5F1E023
:100740000E94EA09E7E5F1E0A0E2B8E00E943A0A77
:10075000E0E2F8E0A7E5B1E017E0222700E034E0AE
:100760000E948E09AAE4B1E0E6E4F1E00E94EA0901
:10077000EAE4F1E0A0E2B8E00E943A0AE0E2F8E040
:10078000AAE4B1E017E0222700E034E00E948E09DD
:10079000A8E3B1E0E6E3F1E00E94F409E8E3F1E068
:1007A000A0E2B8E00E943A0AE0E2F8E0A8E3B1E093
:1007B0001127222704E033270E948E09ADE3B1E020
:1007C000E7E3F1E00E94F409EDE3F1E0A0E2B8E034
:1007D0000E943A0AE0E2F8E0ADE3B1E011272227F7
:1007E00004E033270E948E09AAEAB1E0E9EAF1E0C9
:1007F0000E94F409E7E5F1E0A0E0B1E00E9497086B
:100800000E943A0AA0E0B1E00E949708EEE2F5E10A
:100810000E946909EAE4F1E0A0E0B1E00E949708D3
:100820000E943A0AA0E0B1E00E949708EEE2F5E1EA
:100830000E946909E8E3F1E0A0E0B1E00E949708B6
:100840000E943A0AA0E0B1E00E949708EEE2F5E1CA
:100850000E946909EAEAF1E0A0E0B1E00E9497088D
:100860000E943A0AA0E0B1E00E949708EEE2F5E1AA
:100870000E946909EDE3F1E0A0E0B1E00E94970871
:100880000E943A0AA0E0B1E00E94A0080E94A608D7
:10089000A0E0B1E0E4ECF4E10E946909AEE6B1E069
:1008A0008C9184FB16F00C94560408950E94C202A9
:1008B000089580E183B92C990C946604A5E6B1E013
:1008C000E6EDF4E10E9469090C946F042C9B0C94F2
:1008D0006F04A5E6B1E0E0E3F5E10E9469090E943A
:1008E0001B03089584E086B908950F921F922F92FA
:1008F0003F924F925F927F92AF92BF920F931F935E
:100900002F933F934F935F936F937F938F939F9317
:10091000AF93BF93CF93DF93EF93FF938FB78F93F3
:10092000E0E0F0E0AFE2B1E094E07BE70E94480A4B
:10093000E4E0F0E0A3E3B1E07BE70E94450AE5E0F4
:10094000F0E0A4E3B1E07BE70E94450AE6E0F0E0D6
:10095000A5E3B1E07BE70E94450AE8E0F0E0A4E906
:10096000B1E07BE70E94450AE9E0F0E0A9EAB1E0E6
:100970007BE70E94450AE7E0F0E0ADE6B1E07BE707
:100980000E94450A70916F007E7F70936F00709196
:100990006F007E7F70936F0042988F918FBFFF91A1
:1009A000EF91DF91CF91BF91AF919F918F917F9107
:1009B0006F915F914F913F912F911F910F91BF9038
:1009C000AF907F905F904F903F902F901F900F902F
:1009D00018954C990C940005AFE2B1E00D911D9172
:1009E0002D913C914AEF50E060E070E00E94CC090C
:1009F000AFE2B1E00D931D932D933D930C9412053E
:100A0000AFE2B1E00D911D912D913C914DE750E089
:100A100060E070E00E94CC09AFE2B1E00D931D935D
:100A20002D933D9340E857E366E170E0AFE2B1E01B
:100A30000D911D912D913C9104171507260737073D
:100A400010F40C943C0540E55FE366E170E0AFE232
:100A5000B1E00D911D912D913C91041715072607CA
:100A6000370710F00C94390582E0809333010C9421
:100A70003C0581E0809333010E941B0384E690E0F3
:100A80000E94550933990C9447050C94E904089584
:100A90004C990C945F05AFE2B1E00D911D912D9141
:100AA0003C914AEF50E060E070E00E94D109AFE273
:100AB000B1E00D931D932D933D930C947105AFE21E
:100AC000B1E00D911D912D913C914DE750E060E01A
:100AD00070E00E94D109AFE2B1E00D931D932D9318
:100AE0003D9340E55FE366E170E0AFE2B1E00D9178
:100AF0001D912D913C91041715072607370710F01B
:100B00000C949B0540E857E366E170E0AFE2B1E08A
:100B10000D911D912D913C9104171507260737075C
:100B200010F40C94980582E0809333010C949B059B
:100B300081E0809333010E941B0384E690E00E94D1
:100B400055094A990C94A6050C9448050895A3E309
:100B5000B1E08C918F5F8C9300913301033018F0DA
:100B600011F00C94B5050C94B80581E08093330125
:100B70000E941B030895A4E3B1E08C918F5F8C93D6
:100B800000913401063218F011F00C94C9050C9450
:100B9000CC0580E0809334010E94090684E690E051
:100BA0000E94550934990C94D7050C94BB050895FF
:100BB000A4E3B1E08C9181508C9300913401063212
:100BC00018F011F00C94E6050C94E90586E2809388
:100BD00034010E94090684E690E00E9455094B9971
:100BE0000C94F4050C94D8050895A5E3B1E08C911C
:100BF0008F5F8C9300913501033018F011F00C9445
:100C000003060C94060681E0809335010E940906D4
:100C1000089500913501013011F00C94230680E015
:100C200080933601A2E4B1E0E4E3F5E10E946909B2
:100C300080E080933701A4E4B1E0E4E3F5E10E94B1
:100C400069090C94580600913501023011F00C949A
:100C50003E06809134018093360181E0A2E4B1E048
:100C60008D9388278C9380E080933701A4E4B1E0D2
:100C7000E4E3F5E10E9469090C94580600913501FE
:100C8000033011F00C9458068091340180933601A2
:100C900081E0A2E4B1E08D9388278C9380913401A8
:100CA0008093370181E0A4E4B1E08D9388278C9391
:100CB0000E941B030895429AA9E6B1E00E948409AC
:100CC00040EA5FE060E070E0A9E6B1E00D911D91BF
:100CD0002D913C91041715072607370718F011F0DE
:100CE0000C948B06419AEF93FF93E0E3F2E00E94AD
:100CF0004909FF91EF914198EF93FF93E2E3F2E00E
:100D00000E944909FF91EF91A9E6B1E00E948A088B
:100D100010F40C9460064298089570916F00716011
:100D200070936F0080E090E0909385008093840042
:100D3000429A70916F00716070936F00ADE6B1E000
:100D40008C9180FBAEE6B1E08C9187F98C93AEE696
:100D5000B1E08C9187FBAFE6B1E00E948A098D93E8
:100D600088278C93ADE6B1E08C9181FBAEE6B1E0D3
:100D70008C9186F98C93AEE6B1E08C9186FBA1E76D
:100D8000B1E00E948A098D9388278C93ADE6B1E08B
:100D90008C9182FBAEE6B1E08C9185F98C93AEE646
:100DA000B1E08C9185FBA3E7B1E00E948A098D93A5
:100DB00088278C93A5E7B1E0E6E3F5E10E94690995
:100DC000EFE6F1E0A5E7B1E00E9497080E943A0A39
:100DD000A5E7B1E00E949708EEE2F5E10E946909FB
:100DE000E1E7F1E0A5E7B1E00E9497080E943A0A26
:100DF000A5E7B1E00E949708EEE2F5E10E946909DB
:100E0000E3E7F1E0A5E7B1E00E9497080E943A0A03
:100E1000A5E7B1E00E94A0080E94A608089570917D
:100E20006E01706170936E010E94BF088FE711E040
:100E30000E94CE08E4E4F5E10E94B8084A990C94B7
:100E40002D07ADE6B1E08C9191E089278C930E944B
:100E50008D0688EC90E00E9455094B990C943C0754
:100E6000ADE6B1E08C9192E089278C930E948D06CB
:100E700088EC90E00E9455094C990C944B07ADE624
:100E8000B1E08C9194E089278C930E948D0688ECC8
:100E900090E00E94550935990C945A070E94BF08AA
:100EA00084EF91E00E94550970916E017F7E7093EE
:100EB0006E010895AEE6B1E08C9187FB16F40C94B8
:100EC0006907A8E8B1E0E6E5F5E10E9469090C943C
:100ED0006F07A8E8B1E0EAE5F5E10E946909AEE62E
:100EE000B1E08C9186FB16F40C947E07ACE8B1E07F
:100EF000E6E5F5E10E9469090C948407ACE8B1E0ED
:100F0000EAE5F5E10E946909AEE6B1E08C9185FB66
:100F100016F40C949307A0E9B1E0E6E5F5E10E9430
:100F200069090C949907A0E9B1E0EAE5F5E10E94AE
:100F300069098FEB11E00E94CE08E4E3F5E10E941D
:100F4000B808A8E8B1E00E94B2088FEB17E00E9451
:100F5000CE08ACE8B1E00E94B2088FEB1DE00E9421
:100F6000CE08A0E9B1E00E94B2080C941E0770916F
:100F70006F00716070936F0080E090E09093850047
:100F800080938400429A70916F00716070936F003B
:100F9000A5E9B1E0E4E9F1E00E94F409A7E9B1E0D4
:100FA000EEE5F5E10E946909E5E9F1E0A7E9B1E0C4
:100FB0000E9497080E943A0AA7E9B1E00E94A0089F
:100FC0000E94A608089570916E01706170936E0181
:100FD0000E94BF088FE711E00E94CE08E0E7F5E12C
:100FE0000E94B8088FEB11E00E94CE08E2E8F5E11C
:100FF0000E94B8088FE710E10E94CE08A5E9B1E091
:101000000E94B2088FEB10E10E94CE08AAEAB1E07C
:101010000E94B20888EC90E00E94550934990C9423
:101020002408A4E9B1E08C918F5F8C930091940126
:10103000083018F011F00C941F080C94220888E076
:10104000809394010E94B7074B990C943708A4E948
:10105000B1E08C9181508C9300919401013010F09B
:101060000C94350881E0809394010E94B70735996C
:101070000C944D08A9EAB1E08C918F5F8C9300919C
:10108000A901083018F011F00C9448080C944B0892
:1010900088E08093A9010E941B034C990C9463087B
:1010A000A9EAB1E08C9181508C930091A90108309C
:1010B00018F011F00C945E080C94610880E08093A5
:1010C000A9010E941B034A990C94720870916E0149
:1010D0007F7E70936E010E94BF0884EF91E00E94B2
:1010E000550908950C94FA07F894FFCF0043474A36
:1010F0004D4F5255585B5E6164676B6E72767B7FB5
:1011000083888D92979CA2A7ADB3BAC0CBD2DAE107
:10111000E9F1FA000D911D912D913C910F5F1F4F48
:101120002F4F3F4F3C932E931E930E9308958F9312
:101130008D918823E9F711978F910895A0E2B8E087
:101140008D91882311F005D0FBCF08958DE001D05B
:101150008AE00090C00005FEFCCF8093C600089591
:10116000A0E2B8E08D91882311F06CD0FBCF0895F8
:101170000E946F09802D11F065D0FACF089581E0AB
:1011800067D015D080E864C08FE7213039F08FEB4D
:10119000223021F08FE8233009F08FEC810F0C947E
:1011A000280988EE93E081D03197D9F7089583E03C
:1011B00099277BC08AEF90E00E945509229A219AD4
:1011C000209A579A569A559A5D9885E090E00E9429
:1011D00055095E982A982998289A5F9A5E9AEF9303
:1011E000FF93E4ECF0E00E944909FF91EF915E98D3
:1011F00059D05E9AEF93FF93E4ECF0E00E94490926
:10120000FF91EF915E984ED05E9AEF93FF93E4ECDE
:10121000F0E00E944909FF91EF915E9843D05F98FA
:101220005E9AEF93FF93E4ECF0E00E944909FF918E
:10123000EF915E9837D088E20BD08EE009D086E03F
:1012400007D008955D9A829505D004D02BD00895DB
:101250005D98F9CF859510F45F9A01C05F988595E8
:1012600010F4289A01C02898859510F4299A01C095
:101270002998859510F42A9A01C02A985E9AEF93CE
:10128000FF93E4ECF0E00E944909FF91EF915E9832
:1012900008953197F1F70895689462F80895E894F5
:1012A00062F8089581E090E000C0EF93FF93EE278D
:1012B000E82BE92B31F0E0EDF7E03197F1F70197FA
:1012C000D1F7FF91EF910895019111912191308112
:1012D00008950E946F090D920020D9F70895C895CE
:1012E00031960020089591E005C092E003C094E09B
:1012F00001C098E0F4DF0D929A95E1F70895E80FA8
:10130000F91FF1CF82E001C084E099279D938A956F
:10131000E9F7089580E30EF4839508952E2E3F2E6D
:10132000992781918D3209F093958823D1F79A9569
:10133000E22DF32D112361F0091718F011F0101BA5
:1013400001C0191B28F021F080E28D931A95E9F76E
:1013500080818D3219F48D93319604C0222311F0CF
:101360008BE28D93091738F031F0091B21F080E3EF
:101370008D930A95E9F781918D938823E1F73323C3
:1013800051F0EA2FFB2F319633958E9182933A9547
:10139000E1F78EE28C930895040F151F261F371F67
:1013A0000895041B150B260B370B0895000F111F12
:1013B000221F331F089500951095209530950F5FDB
:1013C0001F4F2F4F3F4F0895019110810FC00E9472
:1013D00064090EC00E94640910C00191108117FFBA
:1013E00005C03FEF2FEF04C00081112722273327CC
:1013F00037FF03C0E0DF8DE28D93CF92DF92EF9253
:10140000AA24BB24CC24DD24EE2440E2EAE0FF271A
:1014100055E093E38081890F87FD9F7083FD907F66
:10142000891B81935A95A9F7C1DFAA1CBB1CCC1C50
:10143000DD1CEE1C4A9551F7E894EFE0FF278291FE
:101440000CD0EB30E0F71EF068948A2D0AD0882784
:101450008D93EF90DF90CF900895982F829501D0D3
:10146000892F8F70805D26F0803309F40895689489
:101470008D93089581918D938823E1F70895F999CB
:10148000FECFE1BDF2BD3196089591E001C092E03A
:101490007B3751F47FB7F894F2DF8D9180BDFA9AD3
:1014A000F99A9A95C9F77FBF7727089591E001C00F
:1014B00092E0E5DFF89A80B58D939A95D1F708957B
:1014C0009833160041542B444D4F53455447524FC7
:1014D00055503D302C002031570056484620464D8F
:1014E000207665723A20322E303100004452413865
:1014F00031382B41746D656C2041565200002041FB
:101500007574686F723A204F4B3148445520000083
:10151000417567757374203230746820323031360B
:10152000000052783A20000054783A2000002C0045
:101530004C6F7700200041542B53455446494C547E
:1015400045523D0020507265202048696768202080
:101550004C6F772000004F6E20004F6666004154AC
:101560002B444D4F534554564F4C554D453D00006F
:10157000417564696F20566F6C756D6520203D2044
:101580000000417564696F20537175656C63682054
:041590003D200000FA
:00000001FF
